:020000040800F2
:10000000D004002001010008B3020008AB02000880
:10001000AF02000875010008470B0008000000004F
:1000200000000000000000000000000021060008A1
:100030007901000800000000250300080D070008F2
:100040001B0100081B0100081B0100081B01000820
:100050001B0100081B0100081B0100081B01000810
:100060001B0100081B0100081B0100081B01000800
:100070001B0100081B0100081B0100081B010008F0
:100080001B0100081B0100081B0100081B010008E0
:100090001B0100081B0100081B0100081B010008D0
:1000A0001B0100081B0100081B0100081B010008C0
:1000B0001B0100081B0100081B0100081B010008B0
:1000C0001B0100081B0100081B0100081B010008A0
:1000D0001B010008FD0700081B010008910800082B
:1000E0001B0100081B0100081B010008DFF80CD0F1
:1000F00000F02EF800480047890F0008D0040020C7
:100100000648804706480047FEE7FEE7FEE7FEE7B1
:10011000FEE7FEE7FEE7FEE7FEE7FEE79D070008D5
:10012000ED00000830B50B460146002020220124D6
:1001300009E021FA02F59D4205D303FA02F5491BB5
:1001400004FA02F52844151EA2F10102F1DC30BDCB
:10015000064C074D06E0E06840F0010394E8070014
:1001600098471034AC42F6D3FFF7C4FFA012000842
:10017000C012000800BFFEE770472DE9F0410246BB
:1001800000250026002000230024002791F803C04A
:100190000CF00F0591F803C00CF0100CBCF1000F2F
:1001A00003D091F802C04CEA050591F800C0BCF1FB
:1001B000000F31D0146800202BE04FF0010C0CFA36
:1001C00000F3B1F800C00CEA03069E4220D1830080
:1001D0004FF00F0C0CFA03F7BC4305FA03FC4CEA92
:1001E000040491F803C0BCF1280F06D14FF0010CB4
:1001F0000CFA00FCC2F814C00AE091F803C0BCF18C
:10020000480F05D14FF0010C0CFA00FCC2F810C0E9
:10021000401C0828D1D31460B1F800C0BCF1FF0F16
:1002200034DD546800202EE000F1080C4FF0010886
:1002300008FA0CF3B1F800C00CEA03069E4221D183
:1002400083004FF00F0C0CFA03F7BC4305FA03FCD4
:100250004CEA040491F803C0BCF1280F05D100F169
:10026000080C08FA0CF8C2F8148091F803C0BCF12D
:10027000480F07D100F1080C4FF0010808FA0CF8FC
:10028000C2F81080401C0828CED35460BDE8F0812D
:100290000246002093680B400BB1012000E00020D3
:1002A0007047416170470161704700BFFEE700BFC2
:1002B000FEE7704770B5002100230F22C47804B315
:1002C000154C246804F4E064C4F5E064210AC1F12B
:1002D0000403CA40447804FA03F1847814402143AB
:1002E00009010E4C0678A155047804F01F0501247D
:1002F000AC4005786D11AD0005F1E025C5F8004171
:1003000009E0047804F01F050124AC40044D067890
:10031000761145F8264070BD0CED00E000E400E0E9
:1003200080E100E07047000029B1064AD26902432B
:10033000044BDA6104E0034AD2698243014BDA617B
:10034000704700000010024029B1064A12690243BA
:10035000044B1A6104E0034A12698243014B1A619B
:10036000704700000010024029B1064A926902431A
:10037000044B9A6104E0034A92698243014B9A61FB
:10038000704700000010024029B1064AD2680243BB
:10039000044BDA6004E0034AD2688243014BDA601E
:1003A00070470000001002400F48006840F0010054
:1003B0000D490860084640680C4908400A494860F1
:1003C000084600680A49084007490860084600686E
:1003D00020F4802008600846406820F4FE00486051
:1003E0004FF41F0088607047001002400000FFF8C3
:1003F000FFFFF6FE30B500210022002400232D4D22
:100400006D6805F00C0121B1042905D0082923D11C
:1004100005E0294D056022E0274D05601FE0254DD0
:100420006D6805F47012234D6D6805F48034022563
:1004300005EB92421CB9214D554305600BE01D4D63
:100440006D6805F400351DB11C4D5543056002E093
:10045000194D5543056002E0174D056000BF00BF10
:10046000144D6D6805F0F0010909154D6B5C0568C8
:10047000DD4045600F4D6D6805F4E061090A104DDF
:100480006B5C4568DD4085600A4D6D6805F4605120
:10049000C90A0B4D6B5C4568DD40C560054D6D6854
:1004A00005F44041890B074D6B5CC568B5FBF3F55E
:1004B000056130BD0010024000127A0000093D00C5
:1004C000100000202000002010B50146002200236B
:1004D00000204A11012A02D1094C236806E0022AB1
:1004E00002D1074C236A01E0054C636A01F01F0248
:1004F000012494401C400CB1012000E0002010BDFC
:10050000001002400248406800F00C0070470000F4
:100510000010024001460020034A506820F0F0001D
:1005200008435060704700000010024011490968FC
:1005300021F480310F4A11601146096821F48021AD
:100540001160B0F5803F03D0B0F5802F0ED106E0EA
:100550000849096841F48031064A116007E00549FD
:10056000096841F4A021034A116000E000BF00BF08
:10057000704700000010024001460020034A506806
:1005800020F4E06008435060704700000010024013
:1005900001460020034A506820F4605040EAC10040
:1005A0005060704700100240014908667047000023
:1005B0000000424202460020044B586820F47C10A0
:1005C00042EA01031843014B586070470010024093
:1005D00001460020034A506820F0030008435060A1
:1005E000704700000010024038B500200090002441
:1005F000002500BF3120FFF767FF05460098401C2B
:1006000000900098B0F5A06F01D0002DF2D03120FD
:10061000FFF75AFF08B1012400E00024204638BD4E
:10062000704710B500F002F810BD00000CB50020B6
:10063000019000903348006840F4803031490860F0
:1006400000BF3048006800F4003000900198401C62
:100650000190009818B90198B0F5A06FF1D1294820
:10066000006800F4003010B10120009001E000208B
:1006700000900098012843D12348006840F0100002
:10068000214908600846006820F003000860084619
:10069000006840F0020008601A4840681949486044
:1006A0000846406848600846406840F480604860FA
:1006B0000846406820F47C1048600846406840F4D2
:1006C000E81048600846006840F08070086000BF8D
:1006D0000C48006800F000700028F9D00948406814
:1006E00020F00300074948600846406840F00200D7
:1006F000486000BF0348406800F00C000828F9D1AA
:100700000CBD0000001002400020024010B5094856
:100710000068401C0749086007480078401C0649EB
:100720000870084600780A2803DB0020087000F0F3
:10073000A1FB10BD000000200400002030B51448CB
:1007400000684FF47A72B0FBF2F1B1F1807F00D310
:100750001DE021F07F40401E4FF0E0225061501715
:100760000F22002807DA13071D0E0A4B00F00F04B2
:10077000241F1D5503E013071C0E074B1C5400BF1C
:1007800000204FF0E02290610720106100BF30BDD3
:100790002400002018ED00E000E400E010B513484C
:1007A000006840F00100114908600846406810499F
:1007B00008400E494860084600680E4908400B4949
:1007C00008600846006820F48020086008464068F9
:1007D00020F4FE0048604FF41F008860FFF721FFFF
:1007E0004FF000600449086010BD00000010024096
:1007F0000000FFF8FFFFF6FE08ED00E010B540F244
:100800002551204800F0DBF8002839D040F225516E
:100810001C4800F04DF81B4800F08CF9C4B2194890
:1008200000F088F9C4B21848008800F4004038BBD2
:10083000212C14D11448008840F40040124908804B
:1008400008460088C0F30D0010490C5400210E48E2
:100850000088C0F30D00401C0C4A115410E00A48F7
:100860000088C0F30D0009490C5407480088401C5B
:1008700005490880084600887F2801DD002008809F
:1008800010BD0000003801400E0000203C00002098
:1008900010B540F22551054800F084F8012804D134
:1008A00040F22551014800F003F810BD0048004017
:1008B00010B50022002340F66A14A14200D100BF07
:1008C0000A1201249440A3B2DC43048010BD10B589
:1008D00002460020108A4FF2FF0318400B884C8814
:1008E00023438C882343CC8823431843108210BDB4
:1008F00021B1828942F40052828104E082894DF65E
:10090000FF731A408281704710B504462048844224
:1009100009D101218803FFF737FD00214FF4804002
:10092000FFF732FD32E01B48844209D1012148041F
:10093000FFF70AFD00214FF40030FFF705FD25E029
:100940001548844209D101218804FFF7FDFC0021EC
:100950004FF48020FFF7F8FC18E01048844209D1DA
:100960000121C804FFF7F0FC00214FF40020FFF73D
:10097000EBFC0BE00A48844208D101210805FFF78F
:10098000E3FC00214FF48010FFF7DEFC10BD0000F7
:10099000003801400044004000480040004C004046
:1009A0000050004002460020B1F5007F00D100BF9A
:1009B00013880B400BB1012000E00020704770B598
:1009C0000246002400230025002040F66A16B142AA
:1009D00000D100BFC1F3421501F01F03012606FA42
:1009E00003F3012D02D19689334006E0022D02D196
:1009F000168A334001E0968A33400C12012606FA2B
:100A000004F41688344013B10CB1012000E000203A
:100A100070BDF0B50346002400260025002040F6F6
:100A20006A17B94200D100BF1846C1F3421401F061
:100A30001F06012707FA06F5012C01D10C3004E04E
:100A4000022C01D1103000E014301AB107682F4396
:100A5000076002E00768AF430760F0BD2DE9F0478B
:100A600086B005460E460024A24600BFA1460027D8
:100A7000B08900B100BF2F462C8A4CF6FF700440AD
:100A8000F08804432C82AC894EF6F3100440B08801
:100A900031890843718908430443AC81AC8A4FF61D
:100AA000FF400440B0890443AC8201A8FFF7A2FCD8
:100AB0001F48874202D1DDF810A001E0DDF80CA04C
:100AC000A88900F4004040B10AEBCA0000EB0A100C
:100AD00031684900B0FBF1F807E00AEBCA0000EB0F
:100AE0000A1031688900B0FBF1F86420B8FBF0F01F
:100AF00004012009642101FB1089A88900F4004049
:100B000040B1322000EBC900B0FBF1F000F007006B
:100B1000044308E0322000EB09106421B0FBF1F03F
:100B200000F00F0004432C8106B0BDE8F087000000
:100B30000038014001468888C0F308007047C1F3BF
:100B400008028280704700BFFEE700000FB4054B2B
:100B500010B503A9044A029800F018F810BC5DF81B
:100B600014FB00001D0E00083800002002E008C839
:100B7000121F08C1002AFAD170477047002001E017
:100B800001C1121F002AFBD1704700002DE9FF4F61
:100B90008BB09A460F460546002606E025280BD066
:100BA00052460D9990476D1C761C28780028F5D187
:100BB0000FB03046BDE8F08F0024A0460122604906
:100BC00000E0044315F8013F203B02FA03F008421D
:100BD000F7D128782E2817D115F8010F44F0040416
:100BE0002A280ED06FF02F022878A0F130010929B1
:100BF0000AD808EB880102EB410100EB01086D1CEB
:100C0000F2E757F8048B6D1C287869283ED006DC83
:100C10000028CDD063280BD0642804D136E0732897
:100C200010D075284BD052460D999047761C85E020
:100C300017F8040B8DF8000000208DF80100E9463C
:100C4000012003E057F8049B4FF0FF3061074FF09D
:100C5000000401D40AE0641C44450DDA8442FADB46
:100C600019F804100029F6D106E0641C8442FCDB6C
:100C700019F804100029F8D1264404E019F8010BF2
:100C800052460D999047641EF8D257E001CF4FF0BD
:100C90000A0B002802DA40422D2102E0210504D58A
:100CA0002B218DF82410012103E0E10705D020213C
:100CB000F7E70DF1200908910CE00021F9E701CFD9
:100CC0004FF00A0BF9E75946FFF72CFA01F1300211
:100CD00009F8012D0028F6D1ADEB090000F1200B39
:100CE000600701D44FF00108D84502DDA8EB0B00E6
:100CF00000E000208046002406E009A85246005D7E
:100D00000D999047641C761C08988442F5DB04E03A
:100D1000302052460D999047761CB8F10001A8F199
:100D20000108F5DC05E019F8010B52460D999047D2
:100D3000761CBBF10001ABF1010BF4DC6D1C34E758
:100D40000928010010B500F009F900F03BF800F0A7
:100D500073F84FF400510448FFF7A5FA2021034827
:100D6000FFF79FFA10BD000000100140000C014089
:100D700010B5002411E04FF400510948FFF791FA33
:100D8000642000F035F84FF400510548FFF78BFA66
:100D9000642000F02DF8601CC4B2032CEBDB10BD06
:100DA0000010014010B54FF4E13000F06BF902A0E3
:100DB000FFF7CCFE10BD00007561727420696E698A
:100DC0007465640008B501210820FFF7CDFA2020E2
:100DD000ADF8000010208DF8030003208DF802000C
:100DE00069460248FFF7C9F908BD0000000C014040
:100DF00070B5044600F002F9054608E000F0FEF880
:100E0000A84204D2C5F1FF30201A84B2002500F0B8
:100E1000F5F8401BA042F1D370BD000000BF054AA9
:100E2000128802F04002002AF9D0C2B2014B1B1D09
:100E30001A8070470038014008B501210420FFF7EF
:100E400093FA4FF48070ADF8000048208DF803004D
:100E500003208DF8020069460548FFF78EF94FF42C
:100E60000060ADF8000069460148FFF786F908BD4B
:100E70000008014010B54FF480713148FFF708FABF
:100E8000E0B930480088401C2E4908802E48007880
:100E900030B908460088052802DD01202A4908707B
:100EA00029480078012818D126480088C82814DD70
:100EB000022025490870254908700EE02248007874
:100EC000012802D12149087002E000201F49087062
:100ED00000201D4908701B4908804FF40061184824
:100EE000FFF7D6F9E0B91A480088401C1849088075
:100EF0001848007830B908460088052802DD01202E
:100F00001449087013480078012818D11048008847
:100F1000C82814DD02200F4908700F4908700EE040
:100F20000C480078012802D10B49087002E000202B
:100F3000094908700020074908700549088010BD5C
:100F4000000801400A0000200800002006000020E0
:100F50000C000020090000200700002008B5012136
:100F60001020FFF701FA4FF40050ADF800001020F8
:100F70008DF8030003208DF8020069460148FFF751
:100F8000FCF808BD001001401FB500F03DF8FFF768
:100F9000D5FBFFF7D7FEFFF705FF4FF4E13000F078
:100FA00071F84FF4E13000F0E7F8FFF7E1FE55206B
:100FB0008DF800008DF801000E218DF8041003213A
:100FC0008DF80310FE208DF80200684600F04BF803
:100FD0008DF8050007A0FFF7B9FD684600F0C0F8DE
:100FE00006E0684600F042F94FF47A70FFF700FF20
:100FF000F7E7000073656E642E2E2E00014800682E
:10100000704700000000002010B5FFF7CDF94FF445
:101010008030FFF78BFAFFF7E7FA044600BF002C99
:10102000FDD00020FFF776FA4FF48060FFF7A4FAB6
:101030000020FFF7ADFA4FF4E0114FF48030FFF7D6
:10104000B9FA0120FFF7B0FA00BF3920FFF73CFAE8
:101050000028FAD00220FFF7BBFA00BFFFF752FAD0
:101060000828FBD110BD01460022022003E00B5CE2
:1010700013449AB2401CCB789B1C8342F7DCD043CC
:10108000C0B2704710B586B00446012144F2040096
:10109000FFF76AF92848FFF737FC4FF40070ADF806
:1010A000040018208DF8070003208DF8060001A920
:1010B0002248FFF762F84FF48060ADF80400042086
:1010C0008DF8070003208DF8060001A91B48FFF7E3
:1010D00054F802940020ADF80C00ADF80E00ADF805
:1010E00010000C20ADF812000020ADF8140002A989
:1010F0001148FFF7B3FC25208DF8000001208DF882
:10110000010000208DF8020001208DF803006846E0
:10111000FFF7D0F8012240F225510748FFF779FC8C
:10112000002240F227710448FFF773FC01210248B6
:10113000FFF7DEFB06B010BD00380140000801409B
:1011400010B5044621460548FFF7F9FC00BF802191
:101150000248FFF727FC0028F9D010BD00380140F5
:1011600010B5044603E014F8010BFFF7E9FF2078FF
:101170000028F8D110BD000010B588B00446012148
:101180000820FFF7F1F801218804FFF7CDF84FF4AC
:101190008060ADF81C0018208DF81F0003208DF82A
:1011A0001E0007A92748FEF7E8FF4FF40060ADF8DE
:1011B0001C0004208DF81F0007A92248FEF7DDFF60
:1011C0000020ADF80400ADF806004FF40070ADF853
:1011D00008000020ADF80A0001A91B48FFF777FBC3
:1011E00003940020ADF81000ADF81200ADF8140023
:1011F000ADF818000C20ADF8160003A91248FFF74F
:101200002DFC27208DF8000001208DF80100022020
:101210008DF8020001208DF803006846FFF74AF8B8
:10122000012240F225510848FFF7F3FB002240F26B
:1012300027710548FFF7EDFB01210348FFF758FB35
:1012400008B010BD000C01400048004010B5044635
:1012500021460548FFF773FC00BF80210248FFF7D5
:10126000A1FB0028F9D010BD0048004010B504468D
:10127000002240F225510948FFF7CBFB03E014F8A8
:10128000010BFFF7E3FF20780028F8D1012240F29C
:1012900025510248FFF7BDFB10BD0000004800408B
:1012A000C0120008000000203C0000006C0B000889
:1012B000FC1200083C000020940400007C0B000895
:1012C000000000000000000000000000000000001E
:1012D00000000000010203040102030406070809DC
:1012E0000204060800A24A040000000000000000FA
:0C12F000010203040607080900000000CA
:0400000508000101ED
:00000001FF
